:400000000040002011000000AD040000AD04000010B500F01DFC00F051FAC04670B5194C12232360182000F08BFBFE221202164B1A60164B164A1A60E022D20015490A6008
:400040001549196015490A60154A1A600025154B1D604022144B1A600132144B1A600132134B1A6013490D2000F0D8FA0D2000F0C9FA114B1D60002000F0F2FB11232360FC
:4000800070BDC04630001040000301400000014040FF00800403014041FF00800803014042FF008028000340140101400C01014000010140F50800000C02224010B572B689
:4000C000EE2212021B4B1A6099231B4A13601B4A13601B4A1B4B1A608022D2021A4B1A60FE221A4B1A600132194B1A600123194A13601949194A1160194A13600133194A49
:400100001360312218490A600A20184908601848184908601721184801601848016018490B6018490A60184A1360FFF777FF00F0A5F910BD00030240000402400007024051
:400140000060D8000800044008010440000204401802044000030440806D1B000803044018030440000404400804044018040440B60D030008050440000604401806044052
:4001800000070440080704401807044010B5064C2378002B07D1054B002B02D0044800E000BF0123237010BD3001002000000000640A0000084B10B5002B03D00749084858
:4001C00000E000BF07480368002B00D110BD064B002BFBD09847F9E70000000034010020640A0000B00000200000000010B50400030011224A214A2000F0DAF82300282241
:4002000011214A2000F0D4F823002F222821112000F0CEF823002F222F21282000F0C8F8230032222F212F2000F0C2F823004A2232212F2000F0BCF823003A224A21322035
:4002400000F0B6F8230032223A214A2000F0B0F82300352232213A2000F0AAF823002F223521322000F0A4F8230027222F21352000F09EF823004A2227212F2000F098F86E
:4002800023004A224A21272000F092F823004A224A214A2000F08CF8FA20400000F0D0F910BDC04610B562B6012000F02BF8012000F054F9012000F05DF90021002000F0BE
:4002C000A3F80021012000F09FF80C21022000F09BF8C820FFF78AFFFBE7C04610B5044A107801235840C0B2107000F04FF910BD4C01002010B5002000F030F9012000F0AF
:400300002DF910BD10B500F01DF910BD10B504000120204000F02EF9FFF7ECFF0220204000F028F9FFF7E6FF0420204000F022F9FFF7E0FF0820204000F01CF9FFF7DAFFC2
:400340001020204000F016F9FFF7D4FF2020204000F010F9FFF7CEFF4020204000F00AF9FFF7C8FF7F232000984300F003F9FFF7C1FF10BD10B500F0FDF810BD70B50400AD
:400380000E0015000020FFF7BDFF402040420443E0B2FFF7BBFF054B985DFFF7B7FF2800FFF7E8FF0120FFF7ADFF70BD680A0000F8B507000E0015001C0000220100062049
:4003C000FFF7DCFF002231000820FFF7D7FF002229000A20FFF7D2FF200000F031F9012239000620FFF7CAFF012231000820FFF7C5FF012229000A20FFF7C0FF200000F0BD
:400400001FF9FFF76BFFF8BD70B504000D000020FFF778FF012C07D0022C09D0002C0DD18020FFF773FF09E08820FFF76FFF05E0802040420543E8B2FFF768FF0120FFF75D
:4004400061FF70BD0B4B1B68002803D080221206134301E05B005B08064A1360064B1B68002802D02022134301E020229343024A1360704780033A402800034010B5032381
:40048000064A13600121064A1160064A13602022054B1A600120FFF7D5FF10BD00210240C002294030003040000E3F4010B500F0ADFA03680C2B00D1FEE7FEE770B50F4E39
:4004C0000F4D13E029686B68AC68002202E001C901C30432A242FAD1E868002202E0002102C304328242FAD11035013E002EE9D100F092FAFFF7D6FEFEE7C0460100000021
:40050000DC0A000010B500230AE0032B03D89A000849505800E008489900084A885001332B2BF2D9FFF7CAFD80229205044B1A6010BDC04600000000AD04000000000020BC
:4005400008ED00E004490A68D2B220239A43400118401043086070470003044004490A68D2B240239A43800118401043086070470000044004490A68D2B210239A4300018B
:4005800018401043086070470000044004490A68D2B220239A4340011840104308607047000504400C4B1B689B001C22134018330A4A1268920803210A40D340084908687B
:4005C000084A02400A60084A944663441B78DBB2064A13607047C046080F03402800034000002240FFFFFFBF4DF3FF0F0C0F0340034B18688023DB05184000D001207047AA
:40060000000022401F2318401E3B8340014A13607047C04600E100E001BE704770B504000D001B2802D90020FFF7F6FF1034A40080239B059C4664442068256070BDC0469C
:4006400010B5040006E0084B586800F0A5F9074B9C46644480231B029C42F4D8024B9868604300F099F910BDB40000200080FFFF70B582B000F0E2F800284DD000F095F96F
:400680000500264B1A6892001C231A401832244B1B689B0803210B40DA400021214B1960214C2168214B0B4021494A438021C9018C466244D20B013A5205520D1343A0223C
:4006C0005203134323601B4B1B680193302000F073F9194A13688021C9050B4313602668164B1E40002407E00120FFF7A9FF1034A30533430C4A1360EE2CF5D90120FFF754
:400700009FFFFF239B051E43074B1E60019A094B1A60280000F04DF902B070BD080F0340280003400C0F03400800224000F800C040420F003000104000002240FFFF3FC0CD
:40074000F0B583B0040018280BD01C2809D0202807D0242805D0282803D02C2801D0302849D100F022F90190FFF742FF002803D0FFF718FF012600E00026214A1368072155
:400780008B4313601F4BE3181B78DBB21E4A13601E4A13688B4313601D4803687F22934319001C4BE3181B7813400B430360322000F0F2F8182C16D9114F3B680725AB439F
:4007C0001A0023001C3B9B082B4013433B60322000F0E2F83A68AA432300183B9B082C001C4014433C60012E01D1FFF741FF019800F0DFF802E00020FFF70EFF03B0F0BD2B
:40080000080F03404DF3FF0F0C0F0340100F0340180F034034F3FF0F10B5034B1B7B584300F0BAF810BDC046B4000020024B1868800F80077047C0460C022240034B1B6843
:40084000002B01DA012000E00020704700002240014A024B1A6070476588EDAC3800034010B50400FFF7E2FFA0421AD0144A136803218B431360134B1B689B0F01D17C20CB
:4008800001E086204000FFF7C7FF00F08EF80D4A13689B009B08A40FA4071C43146000F088F8074B1B6803229343064A1268920F01D1023200E001221343014A136010BD69
:4008C000140222400C02224010B5040000F06DF8054B1C4005490B68054A134023430B600B6800F066F810BD0404040010022240FBFBFBFF10B5244B1B685B0715D5234BA3
:400900001B685B070ED5224B5969042001401F4C22688A4322605A6982435A619B68002B00D098470420FFF7CFFF174B1B685B0518D5164B1B685B0510D5154B59698022F0
:40094000D2001140114802688A4302605969114A0A405A61DB68002B00D098478020C000FFF7B2FF084B1B685B030CD5074B1B685B0304D5064B1B69002B00D098478020AC
:40098000C002FFF7A1FF10BD10022240C800002050010020FFFBFFFF0230800803D001300238FCD1C046C0467047EFF3108072B6704780F31088704770B50400FFF7F5FF9F
:4009C0000500102C05D8104A136803218B43136016E0202C07D80C490B6803229343023A13430B600CE0302C07D807490B6803229343013A13430B6002E00020FFF70CFEDB
:400A00002800FFF7D6FF70BD30001040014B18687047C0462C0100200E4B70B500251E000D4CE41AA410A54204D0AB00F35898470135F8E700F040F8084B00251E00084CBD
:400A4000E41AA410A54204D0AB00F35898470135F8E770BDC40A0000C40A0000C40A0000CC0A0000000000003F065B4F666D7D077F6F777C395E79713D76301E75385554B3
:400A80005C7367506D783E1C1D646E5B777C395E7B713D76301E753855545C7367506D783E1C1D646E5B390F40080101020408102040004300000000F8B5C046F8BC08BCCD
:400AC0009E467047B501000005050000F8B5C046F8BC08BC9E4670478D010000F00A0000B000002080000000380000000000000000000000010000000000E02EC05D000099
:400B00001800000000366E01040404000000000000000000000000000000000000000000000000000000000000000000B30A0000000000000000000000000000000000002F
:400B40000000000000000000000000000000000000000000000000000000000000000000000000000000000000000000CC0000200000000000000000000000000000000089
:400B80000000000000000000000000000000000000000000000000000000000000000000000000000000000000000000000000000000000000000000000000000000000035
:400BC00000000000000000000000000000000000000000000000000000000000000000000000000000000000000000000000000000000000000000000000000000000000F5
:400C000000000000000000000000000000000000000000000000000000000000000000000000000000000000000000000000000000000000000000000000000000000000B4
:400C40000000000000000000000000000000000000000000000000000000000000000000000000000000000000000000000000000000000000000000000000000000000074
:020000040001F9
:0200000490303A
:020000008A4E26
:0200000490402A
:4000000000000000000000000000000000000000000000000000000000000000000000000000000000000000000000000000000000000000000000000000000000000000C0
:0200000490501A
:0C0000000002255011B5000125539C039F
:0200000490600A
:0100000001FE
:00000001FF
