:020000040800F2
:1000000000C0002015390008E9370008EB37000868
:10001000ED370008EF370008F13700080000000056
:10002000000000000000000000000000F33700089E
:10003000F537000800000000F7370008F93700081E
:100040005D3900085D3900085D3900085D39000838
:100050005D3900085D3900085D3900085D39000828
:100060005D3900085D3900085D3900080138000875
:1000700011380008213800085D39000831380008BF
:100080005D3900085D390008413800085D39000815
:100090005D3900085D3900085D3900085D390008E8
:1000A00059380008693800085D39000879380008B7
:1000B0005D3900085D3900085D3900085D390008C8
:1000C0005D3900085D3900085D3900085D390008B8
:1000D0005D3900085D3900085D390008893800087D
:1000E0005D3900085D3900085D390008993800085D
:1000F000A93800085D390008B93800085D390008E2
:100100005D3900085D3900085D3900085D39000877
:100110005D3900085D3900085D3900085D39000867
:100120005D3900085D3900085D3900085D39000857
:1001300000000000000000000000000000000000BF
:1001400000000000000000000000000000000000AF
:10015000000000000000000000000000000000009F
:10016000000000000000000000000000000000008F
:10017000000000000000000000000000000000007F
:10018000000000000000000000000000000000006F
:10019000000000000000000000000000000000005F
:1001A000000000000000000000000000000000004F
:1001B000000000000000000000000000000000003F
:1001C000000000000000000000000000000000002F
:1001D000000000000000000000000000000000001F
:0401E0005FF8E0F1F3
:1001E80010B5054C237833B9044B13B10448AFF369
:1001F80000800123237010BD0C00002000000000C7
:10020800B839000808B5034B1BB103490348AFF3DD
:10021800008008BD0000000010000020B839000868
:1002280081F0004102E000BF83F0004330B54FEA9F
:1002380041044FEA430594EA050F08BF90EA020F0C
:100248001FBF54EA000C55EA020C7FEA645C7FEA9F
:10025800655C00F0E2804FEA5454D4EB5555B8BFC2
:100268006D420CDD2C4480EA020281EA030382EA33
:10027800000083EA010180EA020281EA0303362DC5
:1002880088BF30BD11F0004F4FEA01314FF4801C98
:100298004CEA113102D0404261EB410113F0004FAA
:1002A8004FEA03334CEA133302D0524263EB430361
:1002B80094EA050F00F0A780A4F10104D5F1200EFF
:1002C8000DDB02FA0EFC22FA05F2801841F100015A
:1002D80003FA0EF2801843FA05F359410EE0A5F12E
:1002E80020050EF1200E012A03FA0EFC28BF4CF05F
:1002F800020C43FA05F3C01851EBE37101F0004515
:1003080007D54FF0000EDCF1000C7EEB00006EEB21
:100318000101B1F5801F1BD3B1F5001F0CD34908AB
:100328005FEA30004FEA3C0C04F101044FEA445202
:1003380012F5800F80F09A80BCF1004F08BF5FEA89
:10034800500C50F1000041EB045141EA050130BD69
:100358005FEA4C0C404141EB010111F4801FA4F10C
:100368000104E9D191F0000F04BF01460020B1FA61
:1003780081F308BF2033A3F10B03B3F120020CDA99
:100388000C3208DD02F1140CC2F10C0201FA0CF077
:1003980021FA02F10CE002F11402D8BFC2F1200CDC
:1003A80001FA02F120FA0CFCDCBF41EA0C01904092
:1003B800E41AA2BF01EB0451294330BD6FEA0404DB
:1003C8001F3C1CDA0C340EDC04F11404C4F12002C6
:1003D80020FA04F001FA02F340EA030021FA04F3D8
:1003E80045EA030130BDC4F10C04C4F1200220FA2F
:1003F80002F001FA04F340EA0300294630BD21FA6D
:1004080004F0294630BD94F0000F83F4801306BF32
:1004180081F480110134013D4EE77FEA645C18BF26
:100428007FEA655C29D094EA050F08BF90EA020FBD
:1004380005D054EA000C04BF1946104630BD91EAB5
:10044800030F1EBF0021002030BD5FEA545C05D1B8
:100458004000494128BF41F0004130BD14F58004F7
:100468003CBF01F5801130BD01F0004545F0FE416B
:1004780041F470014FF0000030BD7FEA645C1ABFA0
:10048800194610467FEA655C1CBF0B46024650EAD7
:10049800013406BF52EA033591EA030F41F4002103
:1004A80030BD00BF90F0000F04BF0021704730B589
:1004B8004FF4806404F132044FF000054FF000015E
:1004C80050E700BF90F0000F04BF0021704730B51F
:1004D8004FF4806404F1320410F0004548BF4042F4
:1004E8004FF000013EE700BF42004FEAE2014FEA49
:1004F80031014FEA02701FBF12F07F4393F07F4F24
:1005080081F06051704732F07F4208BF704793F026
:100518007F4F04BF41F40021704730B54FF4607439
:1005280001F0004521F000411CE700BF50EA01023C
:1005380008BF704730B54FF000050AE050EA0102E5
:1005480008BF704730B511F0004502D5404261EB55
:1005580041014FF4806404F132045FEA915C3FF496
:10056800D8AE4FF003025FEADC0C18BF03325FEA33
:10057800DC0C18BF033202EBDC02C2F1200300FAE4
:1005880003FC20FA02F001FA03FE40EA0E0021FA09
:1005980002F11444BDE600BF70B54FF0FF0C4CF4F7
:1005A800E06C1CEA11541DBF1CEA135594EA0C0FA9
:1005B80095EA0C0F00F0DEF82C4481EA030621EAE4
:1005C8004C5123EA4C5350EA013518BF52EA03351F
:1005D80041F4801143F4801338D0A0FB02CE4FF0D1
:1005E8000005E1FB02E506F00042E0FB03E54FF001
:1005F8000006E1FB03569CF0000F18BF4EF0010EF9
:10060800A4F1FF04B6F5007F64F5407404D25FEAF4
:100618004E0E6D4146EB060642EAC62141EA5551A7
:100628004FEAC52040EA5E504FEACE2EB4F1FD0CE9
:1006380088BFBCF5E06F1ED8BEF1004F08BF5FEA67
:10064800500E50F1000041EB045170BD06F0004619
:1006580046EA010140EA020081EA0301B4EB5C04C6
:10066800C2BFD4EB0C0541EA045170BD41F48011BE
:100678004FF0000E013C00F3AB8014F1360FDEBFE3
:10068800002001F0004170BDC4F10004203C35DABF
:100698000C341BDC04F11404C4F1200500FA05F342
:1006A80020FA04F001FA05F240EA020001F00042E3
:1006B80021F0004110EBD37021FA04F642EB060159
:1006C8005EEA430E08BF20EAD37070BDC4F10C0483
:1006D800C4F1200500FA04F320FA05F001FA04F247
:1006E80040EA020001F0004110EBD37041F1000133
:1006F8005EEA430E08BF20EAD37070BDC4F120053E
:1007080000FA05F24EEA020E20FA04F301FA05F2A5
:1007180043EA020321FA04F001F0004121FA04F24D
:1007280020EA020000EBD3705EEA430E08BF20EA1D
:10073800D37070BD94F0000F0FD101F00046400057
:1007480041EB010111F4801F08BF013CF7D041EAD9
:10075800060195F0000F18BF704703F000465200DD
:1007680043EB030313F4801F08BF013DF7D043EAAE
:100778000603704794EA0C0F0CEA135518BF95EA64
:100788000C0F0CD050EA410618BF52EA4306D1D1EB
:1007980081EA030101F000414FF0000070BD50EA0A
:1007A800410606BF1046194652EA430619D094EA94
:1007B8000C0F02D150EA013613D195EA0C0F05D17E
:1007C80052EA03361CBF104619460AD181EA0301D2
:1007D80001F0004141F0FE4141F470014FF000008A
:1007E80070BD41F0FE4141F4780170BD70B54FF025
:1007F800FF0C4CF4E06C1CEA11541DBF1CEA1355A5
:1008080094EA0C0F95EA0C0F00F0A7F8A4EB050486
:1008180081EA030E52EA03354FEA013100F088807D
:100828004FEA03334FF0805545EA131343EA126346
:100838004FEA022245EA111545EA10654FEA0026FB
:100848000EF000419D4208BF964244F1FD0404F5B4
:10085800407402D25B084FEA3202B61A65EB030510
:100868005B084FEA32024FF480104FF4002CB6EBCD
:10087800020E75EB030E22BFB61A754640EA0C004D
:100888005B084FEA3202B6EB020E75EB030E22BF8D
:10089800B61A754640EA5C005B084FEA3202B6EBCE
:1008A800020E75EB030E22BFB61A754640EA9C008D
:1008B8005B084FEA3202B6EB020E75EB030E22BF5D
:1008C800B61A754640EADC0055EA060E18D04FEA1B
:1008D800051545EA16754FEA06164FEAC30343EABB
:1008E80052734FEAC2025FEA1C1CC0D111F4801F88
:1008F8000BD141EA00014FF000004FF0004CB6E781
:1009080011F4801F04BF01430020B4F1FD0C88BF1F
:10091800BCF5E06F3FF6AFAEB5EB030C04BFB6EB2A
:10092800020C5FEA500C50F1000041EB045170BD1D
:100938000EF0004E4EEA113114EB5C04C2BFD4EB4A
:100948000C0541EA045170BD41F480114FF0000ECE
:10095800013C90E645EA060E8DE60CEA135594EA4A
:100968000C0F08BF95EA0C0F3FF43BAF94EA0C0F4D
:100978000AD150EA01347FF434AF95EA0C0F7FF4C2
:1009880025AF104619462CE795EA0C0F06D152EA16
:1009980003353FF4FDAE1046194622E750EA4106FA
:1009A80018BF52EA43067FF4C5AE50EA41047FF40B
:1009B8000DAF52EA43057FF4EBAE12E74FEA41026E
:1009C800B2F1E04324BFB3F5001CDCF1FE5C0DD9A5
:1009D80001F0004C4FEAC0024CEA5070B2F1004FEF
:1009E80040EB830008BF20F00100704711F0804FF2
:1009F80021D113F13872BCBF01F00040704741F4B7
:100A080080114FEA5252C2F11802C2F1200C10FABA
:100A18000CF320FA02F018BF40F001004FEAC1239E
:100A28004FEAD32303FA0CFC40EA0C0023FA02F342
:100A38004FEA4303CCE77FEA625307D150EA013318
:100A48001EBF4FF0FE4040F44000704701F00040E8
:100A580040F0FE4040F40000704700BF80F00040C6
:100A680002E000BF81F0004142001FBF5FEA41037E
:100A780092EA030F7FEA226C7FEA236C6AD04FEA7E
:100A88001262D2EB1363C1BFD218414048404140C3
:100A9800B8BF5B42192B88BF704710F0004F40F475
:100AA800000020F07F4018BF404211F0004F41F491
:100AB800000121F07F4118BF494292EA030F3FD05D
:100AC800A2F1010241FA03FC10EB0C00C3F1200370
:100AD80001FA03F100F0004302D5494260EB4000FF
:100AE800B0F5000F13D3B0F1807F06D340084FEA6A
:100AF800310102F10102FE2A51D2B1F1004F40EB5F
:100B0800C25008BF20F0010040EA030070474900C6
:100B180040EB000010F4000FA2F10102EDD1B0FA91
:100B280080FCACF1080CB2EB0C0200FA0CF0AABF86
:100B380000EBC25052421843BCBFD0401843704724
:100B480092F0000F81F4000106BF80F4000001322A
:100B5800013BB5E74FEA41037FEA226C18BF7FEA01
:100B6800236C21D092EA030F04D092F0000F08BF43
:100B78000846704790EA010F1CBF0020704712F02A
:100B88007F4F04D1400028BF40F00040704712F169
:100B980000723CBF00F50000704700F0004343F0CE
:100BA800FE4040F4000070477FEA226216BF084604
:100BB8007FEA23630146420206BF5FEA412390EAC7
:100BC800010F40F4800070474FF0000304E000BFBD
:100BD80010F0004348BF40425FEA000C08BF70476E
:100BE80043F0964301464FF000001CE050EA010232
:100BF80008BF70474FF000030AE000BF50EA010247
:100C080008BF704711F0004302D5404261EB410133
:100C18005FEA010C02BF84460146002043F0B64358
:100C280008BFA3F18053A3F50003BCFA8CF2083A7D
:100C3800A3EBC25310DB01FA02FC634400FA02FC86
:100C4800C2F12002BCF1004F20FA02F243EB02008D
:100C580008BF20F00100704702F1200201FA02FCEF
:100C6800C2F1200250EA4C0021FA02F243EB0200E2
:100C780008BF20EADC7070474FF0FF0C1CEAD05226
:100C88001EBF1CEAD15392EA0C0F93EA0C0F6FD0E7
:100C98001A4480EA010C400218BF5FEA41211ED0C5
:100CA8004FF0006343EA501043EA5111A0FB0131B1
:100CB8000CF00040B1F5000F3EBF490041EAD37186
:100CC8005B0040EA010062F17F02FD2A1DD8B3F102
:100CD800004F40EBC25008BF20F00100704790F071
:100CE800000F0CF0004C08BF49024CEA502040EAC3
:100CF80051207F3AC2BFD2F1FF0340EAC250704789
:100D080040F400004FF00003013A5DDC12F1190FC6
:100D1800DCBF00F000407047C2F10002410021FA38
:100D280002F1C2F1200200FA02FC5FEA310040F150
:100D3800000053EA4C0308BF20EADC70704792F0C9
:100D4800000F00F0004C02BF400010F4000F013A01
:100D5800F9D040EA0C0093F0000F01F0004C02BFFC
:100D6800490011F4000F013BF9D041EA0C018FE76B
:100D78000CEAD15392EA0C0F18BF93EA0C0F0AD071
:100D880030F0004C18BF31F0004CD8D180EA010097
:100D980000F00040704790F0000F17BF90F0004F30
:100DA800084691F0000F91F0004F14D092EA0C0F12
:100DB80001D142020FD193EA0C0F03D14B0218BFA5
:100DC800084608D180EA010000F0004040F0FE40EB
:100DD80040F40000704740F0FE4040F44000704787
:100DE8004FF0FF0C1CEAD0521EBF1CEAD15392EA06
:100DF8000C0F93EA0C0F69D0A2EB030280EA010CF6
:100E080049024FEA402037D04FF0805343EA11118E
:100E180043EA10130CF000408B4238BF5B0042F1EC
:100E28007D024FF4000C8B4224BF5B1A40EA0C0091
:100E3800B3EB510F24BFA3EB510340EA5C00B3EBC3
:100E4800910F24BFA3EB910340EA9C00B3EBD10FB1
:100E580024BFA3EBD10340EADC001B0118BF5FEA03
:100E68001C1CE0D1FD2A3FF650AF8B4240EBC2502C
:100E780008BF20F0010070470CF0004C4CEA5020ED
:100E88007F32C2BFD2F1FF0340EAC250704740F43C
:100E980000004FF00003013A37E792F0000F00F02E
:100EA800004C02BF400010F4000F013AF9D040EAAC
:100EB8000C0093F0000F01F0004C02BF490011F440
:100EC800000F013BF9D041EA0C0195E70CEAD15338
:100ED80092EA0C0F08D142027FF47DAF93EA0C0F1F
:100EE8007FF470AF084676E793EA0C0F04D14B0203
:100EF8003FF44CAF08466EE730F0004C18BF31F0B5
:100F0800004CCAD130F000427FF45CAF31F00043AE
:100F18007FF43CAF5FE700BF42000ED2B2F1FE4F54
:100F28000BD34FF09E03B3EB126209D44FEA0023B0
:100F380043F0004323FA02F070474FF00000704777
:100F480012F1610F01D1420202D14FF0FF30704718
:100F58004FF00000704700BF10B504460E4B1878DC
:100F68004FF47A73B3FBF0F30C4A1068B0FBF3F05C
:100F780000F096FA68B90F2C01D901200AE0002286
:100F880021464FF0FF3000F037FA034B5C60002039
:100F980000E0012010BD00BF000000200800002074
:100FA80008B5074A136843F010031360032000F0E4
:100FB80011FA0020FFF7D0FF02F0E2F9002008BD87
:100FC80000200240034A1168034B1B780B4413604E
:100FD800704700BF2800002000000020014B18685F
:100FE800704700BF2800002038B50446FFF7F6FF19
:100FF8000546B4F1FF3F02D0044B1B781C44FFF7B1
:10100800EDFF401BA042FAD338BD00BF000000200E
:101018007047704710B5044603685A6812F0200FED
:1010280018D01A6812F0020F14D0826A12F0100F4A
:1010380003D1826A42F4007282629A6802F46022E2
:10104800B2F5602F38D02046FFF7E2FF23686FF033
:1010580012021A6023685A6812F0800F22D01A68A8
:1010680012F0040F1ED0A26A12F0100F03D1A26A68
:1010780042F40052A2629A6802F4E042B2F5E04FEC
:1010880031D05A6812F4806F05D19A6802F4602250
:10109800B2F5602F24D0204600F09AF923686FF04B
:1010A8000C021A6023685A6812F0400F03D01B68BC
:1010B80013F0010F28D110BD227B002AC3D15A6832
:1010C80022F020025A60A36A23F48073A362A36A01
:1010D80013F4805FB7D1A36A43F00103A362B2E7B8
:1010E800227B002AD7D15A6822F080025A60A36A6C
:1010F80023F48053A362A36A13F4807FCBD1A36A3D
:1011080043F00103A362C6E7A36A43F48033A362F2
:101118002046FFF77EFF23686FF001021A60CAE7D6
:1011280030B482B00023019390F82430012B00F0F2
:101138008B800246012380F824304B68062B29D87F
:101148000568686B03EB8303053B1F249C4020EA7A
:1011580004000C6804FA03F303436B630B68092B60
:1011680038D91568E86803EB43031E3B07249C4005
:1011780020EA04008C6804FA03F30343EB600B686D
:10118800103B012B34D90020002382F8243002B010
:1011980030BC70470C2B0ED80568286B03EB830313
:1011A800233B1F249C4020EA04000C6804FA03F344
:1011B80003432B63D2E70568E86A03EB8303413BEB
:1011C8001F249C4020EA04000C6804FA03F303433C
:1011D800EB62C3E71568286903EB430307249C40C7
:1011E80020EA04008C6804FA03F303432B61C6E782
:1011F80013681648834205D0936A43F0200393622C
:101208000120C1E7986810F4000F1BD1986840F4DA
:10121800000098600B68102B01D00020B4E70C4B3D
:101228001B680C49A1FB03139B0C03EB83035900B8
:10123800019102E0019B013B0193019B002BF9D135
:101248000020A1E700209FE70220A0E7002401403A
:101258000800002083DE1B4338B503689A6812F043
:10126800010F01D1002038BD04469A6822F001021E
:101278009A60FFF7B3FE054623689B6813F0010FD9
:101288000ED0FFF7ABFE401B0228F5D9A36A43F046
:101298001003A362E36A43F00103E3620120E2E77B
:1012A8000020E0E7002800F08A8070B50446836AD1
:1012B800002B36D02046FFF7CFFFA36A13F01003A8
:1012C80077D1002875D1A26A22F4885222F002024E
:1012D80042F00202A262626825683A498D4226D02D
:1012E800E1690A43267B42EA4602A168B1F5807F9C
:1012F80027D0012922D0217D012925D0696821F430
:1013080069410B436B6021688D682F4B2B40134359
:101318008B60A368B3F5807F27D0012B25D00021EF
:1013280026E0C36280F8243002F04AF8C2E7E16997
:10133800B1F5402FD5D14FF40021D2E74FF4807397
:10134800D9E74FF48073D6E736B9A169013943EA82
:10135800413343F40063D1E7A16A41F02001A1625F
:10136800E16A41F00101E162C8E72369013B19051F
:101378002568EB6A23F470030B43EB6223689968D2
:10138800124B0B409A420BD0A36A23F0120343F08E
:101398001003A362E36A43F00103E36201200DE056
:1013A8000023E362A36A23F0030343F00103A3626B
:1013B80004E0A36A43F01003A362012070BD01207A
:1013C800704700BF003C0140FDF7E1FFFE0E1FFF24
:1013D80070470000074AD36823F4E0631B041B0C22
:1013E800000200F4E060184340F0BF6040F40030B1
:1013F800D060704700ED00E030B4174BDB68C3F3F2
:101408000223C3F10704042C28BF04241D1D062D44
:1014180018D9033B4FF0FF3505FA04F421EA04011B
:10142800994005FA03F322EA0303194300280BDB6A
:101438000901C9B200F1604000F5614080F800136D
:1014480030BC70470023E5E700F00F000901C9B27E
:10145800024B1954F4E700BF00ED00E014ED00E082
:10146800002807DB00F01F02400901239340024ACD
:1014780042F82030704700BF00E100E000280CDB94
:1014880000F01F024009012393402030034A42F82C
:101498002030BFF34F8FBFF36F8F704700E100E03C
:1014A8000138B0F1807F0AD2064B5860064AF02115
:1014B80082F823100020986007221A6070470120E4
:1014C800704700BF10E000E000ED00E058B110B533
:1014D800044643791BB101236371002010BD0371D9
:1014E80001F0EEFFF7E701207047000000283BD02D
:1014F80010B4034601681D4A91422AD81C4A0A447E
:101508001C49A1FB02121209920002641A4AC26322
:10151800022283F821201868016821F47F5121F004
:1015280030015A689C682243DC6822431C692243C4
:101538005C6922439C692243DC6922430A430260B6
:1015480000209863012283F8212083F8200010BC32
:1015580070470A4A0A440749A1FB0212120992007D
:101568000264074AC263D3E70120704707040240B8
:10157800F8FFFDBFCDCCCCCC00000240F8FBFDBF8E
:101588000004024008B590F82130022B03D0042350
:101598008363012008BD0268136823F00E031360FB
:1015A8000268136823F00103136003684B4A9342EF
:1015B8004ED9783A934224D01432934230D0143220
:1015C80093422FD0143293422FD0143293422FD00B
:1015D800143293422FD0143293422FD002F5627204
:1015E80093422ED0143293422DD0143293422CD0F1
:1015F8001432934202D04FF4803203E04FF4805209
:1016080000E00122364B5A60012380F82130002384
:1016180080F82030436B002B5ED098470020B9E754
:101628001022EFE74FF48072ECE74FF48052E9E7BD
:101638004FF48032E6E74FF48012E3E74FF0807210
:10164800E0E70122DEE71022DCE74FF48072D9E7F9
:10165800244A934224D01432934225D01432934220
:1016680024D01432934224D01432934224D014321A
:10167800934224D01432934224D002F562729342EA
:1016880023D01432934222D01432934221D0143200
:10169800934202D04FF4803203E04FF4805200E0CE
:1016A8000122114B5A60AFE71022FAE74FF480721B
:1016B800F7E74FF48052F4E74FF48032F1E74FF444
:1016C8008012EEE74FF08072EBE70122E9E7102283
:1016D800E7E74FF48072E4E700205BE78000024010
:1016E80000040240080002400000024038B5C36B05
:1016F8001A6804682568016C04238B40134200F0C3
:101708009B8015F0040F00F09780236813F0200FDA
:1017180003D1236823F0040323600368AA4A934291
:1017280046D9783A934224D01432934228D01432BE
:10173800934227D01432934227D01432934227D0B1
:101748001432934227D01432934227D002F56272A2
:10175800934226D01432934225D01432934224D097
:101768001432934202D04FF4802203E04FF48042B7
:1017780000E00422954B5A60C36A03B1984738BD0C
:101788004022F7E74FF48062F4E74FF48042F1E734
:101798004FF48022EEE74FF48002EBE74FF08062CF
:1017A800E8E70422E6E74022E4E74FF48062E1E755
:1017B800874A934224D01432934225D0143293425C
:1017C80024D01432934224D01432934224D01432B9
:1017D800934224D01432934224D002F56272934289
:1017E80023D01432934222D01432934221D014329F
:1017F800934202D04FF4802203E04FF4804200E08D
:101808000422744B5A60B7E74022FAE74FF480622B
:10181800F7E74FF48042F4E74FF48022F1E74FF402
:101828008002EEE74FF08062EBE70422E9E740220E
:10183800E7E74FF48062E4E702238B40134200F0AD
:10184800A38015F0020F00F09F80236813F0200F8B
:1018580006D1236823F00A032360012380F821308E
:101868000368594A93424BD9783A934224D01432A8
:1018780093422DD0143293422CD0143293422CD060
:10188800143293422CD0143293422CD01432934207
:101898002CD002F5627293422BD0143293422AD094
:1018A8001432934229D01432934202D04FF40032BA
:1018B80003E04FF4005200E00222444B5A60002338
:1018C80080F82030836A002B3FF459AF984756E7D9
:1018D8002022F2E74FF40072EFE74FF40052ECE7F2
:1018E8004FF40032E9E74FF40012E6E74FF00072D8
:1018F800E3E70222E1E72022DFE74FF40072DCE7AA
:10190800334A934224D01432934225D0143293425E
:1019180024D01432934224D01432934224D0143267
:10192800934224D01432934224D002F56272934237
:1019380023D01432934222D01432934221D014324D
:10194800934202D04FF4003203E04FF4005200E01B
:101958000222204B5A60B2E72022FAE74FF40072C5
:10196800F7E74FF40052F4E74FF40032F1E74FF491
:101978000012EEE74FF00072EBE70222E9E72022BF
:10198800E7E74FF40072E4E7082303FA01F1114294
:101998003FF4F5AE15F0080F3FF4F1AE236823F0DD
:1019A8000E032360026CC16B012303FA02F24A6042
:1019B800836380F82130002380F82030036B002BEC
:1019C8003FF4DDAE9847DAE68000024000040240AA
:1019D8000800024000000240F0B482B000263246FF
:1019E800ABE0002D63D0012D00D1CE68FF2B72D85B
:1019F8008446FF2B72D89500DCF800400F27AF40D3
:101A080024EA070406FA05F52C43CCF800404C6894
:101A180014F0805F00F09080664CA56945F00105E0
:101A2800A561A46904F001040194019C9508AF1C08
:101A3800614C54F827C002F00304A7000F24BC40EF
:101A48002CEA040C5D4CA0424ED004F58064A04200
:101A580000F08C8004F58064A04200F0898004F5D1
:101A68008064A04200F0868004F58064A04200F003
:101A7800838004F58064A04234D0062435E0504FBA
:101A8800BD4214D00BD94F4FBD4210D007F5803757
:101A9800BD420CD0A7F58017BD42A7D107E0A7F536
:101AA8008017BD4203D007F58037BD429ED18D68AF
:101AB8007DB1012D08D04461082697E7CE68083625
:101AC80094E7CE680C3691E7046108268EE7002675
:101AD8008CE704268AE700F1040C8AE7A2F10805DE
:101AE800AD0089E7052400E00024BC4044EA0C046A
:101AF8000235314F47F825404C6814F4803F3DD0FB
:101B0800314D2C681C432C604C6814F4003F3BD0CA
:101B18002D4D6C681C436C604C6814F4801F39D0E0
:101B2800294DAC681C43AC604C6814F4001F37D0D6
:101B3800254DEC682343EB6001320B6833FA02F45D
:101B480034D00124944023409C42F5D14D68122D95
:101B5800B7D094D8022DB1D07FF643AF032DB6D0BD
:101B6800112D7FF443AFCE6804363FE70124BCE76C
:101B78000224BAE70324B8E70424B6E7124D2C6818
:101B880024EA03042C60BFE70F4D6C6824EA0304C1
:101B98006C60C1E70C4DAC6824EA0304AC60C3E791
:101BA800094DEC6824EA0303EB60C5E702B0F0BC1A
:101BB800704700BF001002400000014000080140CB
:101BC80000002110000031100004014012B909047E
:101BD800016170470161704782B0084B1B68084A71
:101BE800A2FB03235B0A00FB03F0019000BF019BEB
:101BF8005A1E0192002BF9D102B07047080000204C
:101C0800D34D6210002800F0F58170B582B004460B
:101C1800036813F0010F2CD0AB4B5B6803F00C0387
:101C2800042B1DD0A84B5B6803F00C03082B12D0C3
:101C38006368B3F5803F41D0002B55D103F1804351
:101C480003F504331A6822F480321A601A6822F401
:101C580080221A6037E09C4B5B6813F4803FE7D022
:101C6800994B1B6813F4003F03D06368002B00F006
:101C7800C381236813F0020F76D0934B5B6813F08F
:101C88000C0F5FD0904B5B6803F00C03082B54D00B
:101C98002369002B00F08A808C4B01221A60FFF721
:101CA8009DF90546884B1B6813F0020F75D1FFF7A5
:101CB80095F9401B0228F5D90320A0E1824A136850
:101CC80043F480331360636843B3FFF787F905462D
:101CD8007D4B1B6813F4003FCBD1FFF77FF9401B06
:101CE8006428F5D903208AE1B3F5A02F09D0764BF3
:101CF8001A6822F480321A601A6822F480221A6064
:101D0800E1E703F18043A3F53C331A6842F48022EB
:101D18001A601A6842F480321A60D4E7FFF75EF955
:101D28000546694B1B6813F4003FA2D0FFF756F92C
:101D3800401B6428F5D9032061E1634B5B6813F409
:101D4800803FA5D1604B1B6813F0020F04D02369B4
:101D5800012B01D0012052E15B4A136823F0F803FC
:101D6800616943EAC1031360236813F0080F32D096
:101D7800A369002B5BD0564B01221A60FFF72EF99E
:101D88000546514B5B6A13F0020F21D1FFF726F984
:101D9800401B0228F5D9032031E14B4A136823F090
:101DA800F803616943EAC1031360DDE7474B00228A
:101DB8001A60FFF713F90546434B1B6813F0020F2F
:101DC800D2D0FFF70BF9401B0228F5D9032016E102
:101DD8000120FFF701FF236813F0040F00F098803B
:101DE800394BDB6913F0805F33D1374BDA6942F046
:101DF8008052DA61DB6903F080530193019B01256E
:101E0800344B1B6813F4807F25D0E368012B36D050
:101E1800002B4CD103F1804303F504331A6A22F0F6
:101E280001021A621A6A22F004021A622CE0284B94
:101E380000221A60FFF7D2F80546234B5B6A13F0BD
:101E4800020FC8D0FFF7CAF8401B0228F5D90320B3
:101E5800D5E00025D4E71F4A136843F48073136064
:101E6800FFF7BCF806461B4B1B6813F4807FCCD1E8
:101E7800FFF7B4F8801B6428F5D90320BFE0124AA5
:101E8800136A43F001031362E3687BB3FFF7A6F814
:101E980006460D4B1B6A13F0020F38D1FFF79EF868
:101EA800801B41F288339842F3D90320A7E0052B21
:101EB80012D0054B1A6A22F001021A621A6A22F03D
:101EC80004021A62E0E700BF00100240000042422C
:101ED80080044242007000404C4B1A6A42F00402EF
:101EE8001A621A6A42F001021A62CDE7FFF776F821
:101EF8000646464B1B6A13F0020F08D0FFF76EF830
:101F0800801B41F288339842F3D9032077E0E5B982
:101F1800E369002B72D03D4A526802F00C02082A8D
:101F280056D0022B17D03A4B00221A60FFF756F80A
:101F38000446364B1B6813F0007F47D0FFF74EF876
:101F4800001B0228F5D9032059E0304AD36923F051
:101F58008053D361DCE72E4B00221A60FFF73EF86E
:101F680005462A4B1B6813F0007F06D0FFF736F8AA
:101F7800401B0228F5D9032041E0236AB3F5803FCE
:101F88001AD022494B6823F47413226A606A024308
:101F980013434B601E4B01221A60FFF71FF80446DB
:101FA8001A4B1B6813F0007F0ED1FFF717F8001BC0
:101FB8000228F5D9032022E0144A536823F4003399
:101FC800A1680B435360DCE7002018E0002016E00E
:101FD800012B16D00D4B5B6803F48031226A9142C5
:101FE80001D001200BE003F47013626A93420AD017
:101FF800012004E001207047012000E0002002B029
:1020080070BD0120FBE70020F9E700BF0010024087
:102018006000424210B487B0164C94E80F000DF1EE
:10202800180C0CE90F00238AADF80430124B5B68DA
:1020380003F00C02082A1AD1C3F38342624412F84F
:10204800102C13F4803F05D10C4800FB02F007B0B8
:1020580010BC7047084B5B68C3F34043634413F8F4
:10206800143C074800FB02F0B0FBF3F0EFE704482C
:10207800EDE700BFD03900080010024000093D001C
:1020880000127A00002800F0A38070B50446524B75
:102098001B6803F007038B420CD24F4A136823F0E6
:1020A80007030B431360136803F007038B4201D047
:1020B800012070BD236813F0020F17D013F0040F2E
:1020C80004D0464A536843F4E0635360236813F02E
:1020D800080F04D0414A536843F4605353603F4AA1
:1020E800536823F0F003A068034353600D46236848
:1020F80013F0010F31D06368012B20D0022B25D0BB
:10210800364A126812F0020F64D034494A6822F045
:10211800030213434B60FEF761FF06462F4B5B68D3
:1021280003F00C036268B3EB820F16D0FEF756FF7C
:10213800801B41F288339842F0D90320B9E7274A37
:10214800126812F4003FE0D10120B2E7234A126876
:1021580012F0007FD9D10120ABE71F4B1B6803F0B9
:102168000703AB420CD91C4A136823F007032B431F
:102178001360136803F00703AB4201D0012098E70E
:10218800236813F0040F06D0144A536823F4E0635D
:10219800E1680B435360236813F0080F07D00F4A18
:1021A800536823F46053216943EAC1035360FFF77E
:1021B80031FF0A4B5B68C3F30313094AD35CD84069
:1021C800084B1860084B1868FEF7C6FE002070E739
:1021D8000120704701206CE70020024000100240F7
:1021E800E43900080800002004000020014B1868AA
:1021F800704700BF0800002008B5FFF7F7FF044B41
:102208005B68C3F30223034AD35CD84008BD00BF10
:1022180000100240F439000808B5FFF7E7FF044B47
:102228005B68C3F3C223034AD35CD84008BD00BF30
:1022380000100240F439000870B582B00446036803
:1022480013F0010F34D03E4BDB6913F0805F48D1A7
:102258003B4BDA6942F08052DA61DB6903F0805364
:102268000193019B0125374B1B6813F4807F3AD0FB
:10227800334B1B6A13F4407311D0626802F4407246
:102288009A420CD02E4A136A23F440702E49012634
:102298000E6000260E60106213F0010F37D1284A35
:1022A800136A23F4407361680B431362002D3FD116
:1022B800236813F0020F06D0214A536823F44043E1
:1022C800A1680B435360236813F0100F35D01C4AE4
:1022D800536823F4800361690B435360002002B004
:1022E80070BD0025BFE7174A136843F48073136075
:1022F800FEF774FE0646134B1B6813F4807FB7D1B4
:10230800FEF76CFE801B6428F5D90320E7E7FEF78B
:1023180065FE06460A4B1B6A13F0020FBFD1FEF793
:102328005DFE801B41F288339842F3D90320D6E73B
:10233800D36923F08053D361BAE70020CFE700BF09
:1023480000100240007000404004424230B4036A6A
:1023580023F001030362056A4268846924F0730468
:102368000B681C4325F002058B682B43104DA842CF
:1023780003D005F50065A84205D123F00803CD6810
:102388002B4323F004030A4DA84203D005F500654A
:10239800A84205D122F440724D6915438A692A433F
:1023A800426084614A684263036230BC704700BF80
:1023B800002C014030B4036A23F480730362036A7B
:1023C8004268C46924F073040D682C4323F4007335
:1023D8008D6843EA0523124DA84203D005F5006530
:1023E800A84206D123F40063CD6843EA052323F409
:1023F80080630B4DA84203D005F50065A84207D1BC
:1024080022F440524D6942EA05128D6942EA0512EA
:102418004260C4614A68C263036230BC704700BF4F
:10242800002C014030B4036A23F480530362036A2A
:102438004468C26922F4E6420D6842EA052223F4A0
:1024480000538D6843EA0533094DA84203D005F5CA
:102458000065A84204D124F480444D6944EA8514F7
:102468004460C2614A680264036230BC704700BFBE
:10247800002C014010B4036A046A24F001040462C9
:10248800846924F0F00444EA021223F00A030B439F
:102498008261036210BC704710B4036A23F0100312
:1024A80003628469036A24F4704444EA023223F024
:1024B800A00343EA01138261036210BC704783687A
:1024C80023F07003194341F007018160704710B58C
:1024D8000446022380F83D300368196A41F211125C
:1024E800114208D1196A40F24442114203D11A68D4
:1024F80022F001021A60204601F0DEF8002084F87C
:102508003D0084F83C0010BD704770477047704725
:10251800704710B5044603681A6912F0020F11D00B
:10252800DA6812F0020F0DD06FF002021A6101236F
:10253800037703689B6913F0030F70D0FFF7E6FF7A
:102548000023237723681A6912F0040F12D0DA687F
:1025580012F0040F0ED06FF004021A6102232377E1
:1025680023689B6913F4407F5FD02046FFF7CEFFB6
:102578000023237723681A6912F0080F12D0DA684B
:1025880012F0080F0ED06FF008021A6104232377A7
:102598002368DB6913F0030F4ED02046FFF7B6FF20
:1025A8000023237723681A6912F0100F12D0DA6813
:1025B80012F0100F0ED06FF010021A610823237763
:1025C8002368DB6913F4407F3DD02046FFF79EFF68
:1025D8000023237723681A6912F0010F03D0DA6801
:1025E80012F0010F36D123681A6912F0800F03D058
:1025F800DA6812F0800F34D123681A6912F0400F9C
:1026080003D0DA6812F0400F32D123681A6912F049
:10261800200F03D0DA6812F0200F30D110BDFFF779
:1026280074FF2046FFF773FF8AE72046FFF76DFF28
:102638002046FFF76CFF9BE72046FFF766FF204622
:10264800FFF765FFACE72046FFF75FFF2046FFF77F
:102658005EFFBDE76FF001021A612046FFF754FFE5
:10266800C1E76FF080021A61204600F04FFAC3E715
:102678006FF040021A612046FFF74AFFC5E76FF086
:1026880020021A61204600F040FAC7E70368244A8E
:10269800904212D002F5006290420ED0B0F1804F05
:1026A8000BD0A2F59832904207D002F58062904292
:1026B80003D002F58062904203D123F070034A6888
:1026C8001343174A904212D002F5006290420ED08E
:1026D800B0F1804F0BD0A2F59832904207D002F5A6
:1026E8008062904203D002F58062904203D123F4C5
:1026F8004073CA68134323F080034A691343036095
:102708008B68C3620B688362054B984203D003F55C
:102718000063984201D10B69036301234361704749
:10272800002C0140A8B110B5044690F83D305BB1CB
:10273800022384F83D30211D2068FFF7A7FF0123FD
:1027480084F83D30002010BD80F83C3000F0CEFE0B
:10275800EEE701207047A8B110B5044690F83D3067
:102768005BB1022384F83D30211D2068FFF78EFFFE
:10277800012384F83D30002010BD80F83C3000F083
:1027880003FFEEE70120704730B4036A23F010031B
:102798000362036A4468826922F4E6420D6842EAE9
:1027A800052223F020038D6843EA0513114DA84242
:1027B80003D005F50065A84206D123F08003CD6853
:1027C80043EA051323F040030A4DA84203D005F558
:1027D8000065A84207D124F440644D6944EA8504A1
:1027E8008D6944EA8504446082614A6882630362B1
:1027F80030BC7047002C014038B590F83C30012BB4
:1028080066D00D460446012380F83C30022380F848
:102818003D300C2A1AD8DFE802F0071919192019D7
:1028280019193419191947000068FFF78FFD226834
:10283800936943F0080393612268936923F00403C2
:1028480093612268936929690B439361012384F892
:102858003D30002084F83C0038BD0068FFF794FF45
:102868002268936943F4006393612268936923F4AF
:102878008063936122689369296943EA012393611C
:10288800E4E70068FFF796FD2268D36943F0080380
:10289800D3612268D36923F00403D3612268D36922
:1028A80029690B43D361D1E70068FFF7BBFD2268B4
:1028B800D36943F40063D3612268D36923F4806346
:1028C800D3612268D369296943EA0123D361BDE74B
:1028D8000220C1E710B4846824F47F4442EA032349
:1028E8000B432343836010BC704790F83C30012BA6
:1028F80066D010B50446012380F83C30022380F8E6
:102908003D300268936823F47F4323F07703936094
:102918000B68402B4AD013D9602B3DD01ED9702BA1
:1029280028D0B3F5005F30D1CB684A688968006861
:10293800FFF7D0FF2268936843F48043936024E054
:10294800102B06D004D9202B03D0302B01D01CE04B
:10295800DBB919462068FFF7B2FD16E0502B14D1F9
:10296800CA6849680068FFF785FD50212068FFF7AD
:10297800A6FD0AE0CB684A6889680068FFF7AAFFE5
:102988002268936843F077039360012384F83D300D
:10299800002084F83C0010BDCA6849680068FFF749
:1029A8007BFD60212068FFF78AFDEEE7CA68496869
:1029B8000068FFF75FFD40212068FFF780FDE4E72E
:1029C8000220704710B401F01F01012303FA01F43B
:1029D800036A23EA04030362036A8A401343036217
:1029E80010BC704710B5044601220068FFF7EAFFE3
:1029F80023680B4A934203D002F50062934203D145
:102A08005A6C42F400425A642268936803F0070340
:102A1800062B03D0136843F001031360002010BD98
:102A2800002C014010B401F01F01042303FA01F443
:102A3800036A23EA04030362036A8A4013430362B6
:102A480010BC704710B5044604220068FFF7EAFF7F
:102A58002268536C43F4004353642268936803F07C
:102A68000703062B03D0136843F00103136000200B
:102A780010BD90F83C30012B1CD070B4012680F8B2
:102A88003C60022380F83D3002685568936825F061
:102A980070050C682C4323F080054B682B43546069
:102AA8000268936080F83D60002380F83C30184647
:102AB80070BC70470220704790F83C30012B22D040
:102AC800012380F83C30CB6823F440738A681343B1
:102AD80023F480634A68134323F400630A681343AA
:102AE80023F480530A69134323F400534A691343B8
:102AF80023F48043CA69134302685364002380F8AF
:102B08003C3018467047022070477047704702688B
:102B1800D36823F49073D3600268536923F00103E8
:102B28005361202380F83A30704790F83930DBB28F
:102B3800212B2AD18368B3F5805F16D0036A5A1C0B
:102B480002621A7803685A60C38C013B9BB2C38443
:102B5800EBB90268D36823F08003D3600268D368B6
:102B680043F04003D36000207047036A1B88026863
:102B7800C3F30803536003691BB9036A0233036292
:102B8800E2E7036A01330362DEE7022070470020B0
:102B98007047000038B504460268136923F44053AF
:102BA800C1680B43136183680269134342691A437E
:102BB8000168CB6823F4B05323F00C031343CB60B4
:102BC8000268536923F4407381690B4353610268B7
:102BD800214B9A421FD0FFF70FFB00EB800000EB60
:102BE800800063689B00B0FBF3F01C4DA5FB00322E
:102BF8005109642202FB110213013233A5FB03239E
:102C08005B0903F0F00202EB011203F00F032168E5
:102C180013448B6038BDFFF7FFFA00EB800000EB30
:102C2800800063689B00B0FBF3F00C4DA5FB0032FD
:102C38005109642202FB110213013233A5FB03235D
:102C48005B0903F0F00202EB011203F00F032168A5
:102C580013448B60DEE700BF003801401F85EB514D
:102C680058B310B5044690F839300BB3242384F8D0
:102C780039302268D36823F40053D3602046FFF725
:102C880089FF2268136923F490431361226853690A
:102C980023F02A0353612268D36843F40053D360B6
:102CA8000020E063202384F8393084F83A3010BDDE
:102CB80080F8383000F01AFDD8E7012070477047D7
:102CC80008B50168CB6823F04003CB60202380F867
:102CD8003930FFF7F4FF002008BD704708B590F8B9
:102CE8003A30DBB2222B45D18368B3F5805F0ED032
:102CF800036903BB03685A68836A591C81621A70A6
:102D0800C38D013B9BB2C385F3B1002033E0826AD7
:102D1800036943B903685B68C3F308031380836AD4
:102D280002338362ECE703685B68DBB21380836A73
:102D380001338362E4E703685B68826A511C81623D
:102D480003F07F031370DBE70268D36823F02003E6
:102D5800D3600268D36823F48073D3600268536930
:102D680023F001035361202380F83A30FFF7B5FFC1
:102D7800002000E0022008BD7047000010B504469E
:102D880002681368D168526913F00F0005D113F077
:102D9800200F02D011F0200F53D1002867D012F075
:102DA800010202D111F4907F61D013F0010F06D017
:102DB80011F4807F03D0E06B40F00100E06313F072
:102DC800040F04D01AB1E06B40F00200E06313F086
:102DD800020F04D01AB1E06B40F00400E06313F076
:102DE800080F04D01AB1E26B42F00802E263E26B0A
:102DF800002A48D013F0200F02D011F0200F24D160
:102E080023685B6903F04003E26B12F0080F00D1FE
:102E18003BB32046FFF77BFE23685A6912F0400F48
:102E28001BD05A6922F040025A61636B8BB11A4A6F
:102E38005A63606BFEF7A6FB28B3606B436B984739
:102E480021E02046FFF74AFF1DE02046FFF746FF36
:102E5800D6E72046FFF790FF15E02046FFF78CFFE6
:102E680011E02046FFF788FF0023E3630BE013F02F
:102E7800800F02D011F0800F06D113F0400F02D05E
:102E880011F0400F04D110BD2046FFF74EFEFAE7BF
:102E98002046FFF715FFF6E7A52E000808B5406A9B
:102EA8000023C385C384FFF767FF08BDF0B597B05B
:102EB80006460F4600241294139414941594109403
:102EC800119409940A940B940C940D940E940F94F5
:102ED8002022214601A800F063FD244D244B2B60DD
:102EE80007236B60AC603046FEF716F8E8602C618B
:102EF8006C61AC612846FFF715FC4FF480531293C0
:102F080012A92846FFF7F1FC2846FFF724FC109485
:102F1800119410A92846FFF7ACFD602309934FF0E0
:102F28007C513046FDF7A8FEFDF7F6FF0A900B949A
:102F38000C940D940E940F94224609A92846FFF785
:102F48005BFC0194029403943846FDF7E5FF049076
:102F580005944FF400530693089401A92846FFF7F7
:102F6800ABFD284600F040FB17B0F0BDE40100209F
:102F7800002C0140F0B593B006460F46002410948B
:102F8800119409940A940B940C940D940E940F9434
:102F98002022214601A800F003FD1F4D1F4B2B6086
:102FA80007236B60AC603046FDF7B6FFE8602C6124
:102FB8006C61AC612846FFF7CEFB1094119410A900
:102FC8002846FFF756FD602309934FF07C513046A1
:102FD800FDF752FEFDF7A0FF0A900B940C940D9498
:102FE8000E940F94224609A92846FFF705FC019480
:102FF800029403943846FDF78FFF049005944FF42C
:1030080000530693089401A92846FFF755FD284662
:1030180000F0EAFA13B0F0BD2C00002000340140A3
:103028002DE9F04188B0002404940594069407948F
:10303800264B9A6942F020029A619A6902F02002AE
:103048000092009A9A6942F010029A619A6902F015
:1030580010020192019A9A6942F004029A619A69EF
:1030680002F004020292029A9A6942F008029A61F6
:103078009B6903F008030393039BDFF858802246FB
:103088004FF401414046FEF7A1FD114D22464FF491
:1030980000712846FEF79AFD4FF401430493012777
:1030A800059706940226079604A94046FEF794FC65
:1030B8004FF40073049305970694079604A92846CD
:1030C800FEF78AFC08B0BDE8F08100BF001002409E
:1030D80000100140000C014000B583B0164B5A693E
:1030E80042F001025A615B6903F001030193019BFD
:1030F800002211460B20FEF77FF90B20FEF7B0F9EE
:10310800002211460C20FEF777F90C20FEF7A8F9EB
:10311800002211460D20FEF76FF90D20FEF7A0F9E9
:10312800002211460F20FEF767F90F20FEF798F9E5
:1031380003B05DF804FB00BF0010024070B584B016
:1031480000250195029503950C4C0D4B2360A56055
:10315800257325754FF46023E361656001262661B8
:103168002046FEF79FF8062301930296039501A9CE
:103178002046FDF7D5FF04B070BD00BF70010020E8
:103188000024014070B584B000250195029503958F
:103198000C4C0D4B2360A560257325754FF46023F7
:1031A800E3616560012626612046FEF77BF80F2360
:1031B80001930296039501A92046FDF7B1FF04B0DB
:1031C80070BD00BFF00000200028014008B503488A
:1031D800034B0360FEF77AF908BD00BF2401002005
:1031E8000030024008B50848084B03604FF4E1334B
:1031F800436000238360C36003610C2242618361E2
:10320800C361FFF72DFD08BDB00000200048004055
:1032180030B58BB01E23002206E00AA901EB82011B
:1032280041F8243C01320733642BF6DD0A28D4BF69
:1032380000230123002808BF01232BB9002801DD42
:103248000A2805DD0BB030BD2348FFF740F9F9E740
:10325800C0F109030AAA02EB830353F8240CFDF713
:10326800B7FC0446FDF740F919A3D3E90023FDF79D
:1032780093F90022194BFCF7D9FFFDF79FFB054690
:1032880001462046FFF712FE29462046FFF772FE48
:10329800134AD36843F40043D36002F58062D368CD
:1032A80043F40073D3600C4C00212046FFF79AFBCF
:1032B80000212046FFF7C6FB0A4C00212046FFF7F5
:1032C80091FB00212046FFF7BDFBBBE7AFF3008071
:1032D8009A9999999999A93FE401002000002C40F6
:1032E800000C01402C00002030B597B020220021AE
:1032F8000EA800F055FB00240794089409940A943A
:103308000B94019402940394049405940694012266
:103318000C924FF480330D93109202251395149359
:103328000CA8FEF76FFC0F230793089580230993D9
:103338000A940B94214607A8FEF7A4FE019503946E
:1033480001A8FEF779FF17B030BD08B5FDF728FED4
:10335800FFF7CAFFFFF764FEFFF7BEFEFFF7EEFEBA
:10336800FFF710FFFFF732FFFFF73CFF4FF47A70CB
:10337800FDF73AFE0820FFF74BFFFEE77047000015
:1033880082B00D4B9A6942F001029A619A6902F083
:1033980001020092009ADA6942F08052DA61DB6930
:1033A80003F080530193019B044A536823F0E063C0
:1033B800536002B0704700BF001002400000014097
:1033C80010B588B000230493059306930793036808
:1033D800344A934204D0344A93423FD008B010BDD7
:1033E8000446324B9A6942F400729A619A6902F46F
:1033F80000720092009A9A6942F004029A619B69ED
:1034080003F004030193019B4823049303230593CA
:1034180004A92748FEF7E0FA2648274B0360002353
:10342800436083608022C2604FF4807202614FF46F
:10343800806242618361C361FEF758F858B91D4B39
:1034480023625C62002211461220FDF7D5FF12208C
:10345800FEF706F8C2E7FFF791FFF0E7134B9A690A
:1034680042F480629A619A6902F480620292029A36
:103478009A6942F010029A619B6903F01003039362
:10348800039B222304930323059304A90B48FEF707
:10349800A3FA002211461220FDF7AEFF1220FDF715
:1034A800DFFF9BE700240140002801400010024094
:1034B80000080140A001002008000240001001405F
:1034C8000268094B9A4200D0704782B0A3F50053B6
:1034D8005A6942F040025A615B6903F04003019364
:1034E800019B02B0704700BF003002400268234BC6
:1034F8009A4200D0704710B582B0044603F5644381
:103508009A6942F400629A619B6903F4006301932B
:10351800019B1B481B4B03601023436000238360FF
:103528008022C2604FF4807202614FF4806242616F
:103538008361C361FDF7DAFFE0B9114B23625C6276
:10354800002211461820FDF757FF1820FDF788FFC5
:10355800002211461920FDF74FFF1920FDF780FFC3
:10356800002211461B20FDF747FF1B20FDF778FFBF
:1035780002B010BDFFF702FFDFE700BF002C0140DB
:1035880028020020580002400268164B9A4200D0D8
:10359800704700B583B003F55C439A6942F4005262
:1035A8009A619B6903F400530193019B0022114621
:1035B8002B20FDF721FF2B20FDF752FF002211469B
:1035C8002C20FDF719FF2C20FDF74AFF0022114699
:1035D8002E20FDF711FF2E20FDF742FF03B05DF806
:1035E80004FB00BF0034014010B588B000230493E9
:1035F8000593069307930368294A934204D0294AFE
:10360800934228D008B010BD274B9A6942F00802AF
:103618009A619A6902F008020092009A9A6942F047
:1036280004029A619B6903F004030193019B4FF420
:103638000053049302240594079404A91B48FEF739
:10364800CBF94FF4807304930594079404A91848A0
:10365800FEF7C2F9D6E7144B9A6942F004029A6160
:103668009A6902F004020292029A9A6942F01002E0
:103678009A619B6903F010030393039B80230493CF
:1036880002240594079404A90948FEF7A5F94023E4
:1036980004930594079404A90648FEF79DF9B1E739
:1036A800002C01400034014000100240000C014091
:1036B800000801400010014008B50268094B9A4211
:1036C80000D008BD084A936923F4005393612B2066
:1036D800FDF7D4FE2C20FDF7D1FE2E20FDF7CEFEFF
:1036E800EFE700BF003401400010024070B586B01B
:1036F800002302930393049305930268324B9A4282
:1037080001D006B070BD044603F5E433DA6942F42B
:103718008022DA61DA6902F480220092009A9A69BA
:1037280042F008029A619B6903F008030193019B28
:103738004FF4806302930223039303230593234EDC
:1037480002A93046FEF748F94FF4006302930025BA
:103758000395049502A93046FEF73EF91C481D4B17
:103768000360456085608023C3600561456120234F
:103778008361C561FDF7BAFEF8B9154B63635C62F6
:103788001548164B03601023436000238360802292
:10379800C2600361436120228261C361FDF7A6FE16
:1037A80070B90D4B23635C62002211462720FDF798
:1037B80023FE2720FDF754FEA3E7FFF7DFFDDCE734
:1037C800FFF7DCFDEDE700BF00480040000C0140BA
:1037D8006C000020300002402C0100201C00024038
:1037E8007047FEE7FEE7FEE7FEE770477047704761
:1037F80008B5FDF7E7FB08BD08B50248FDF776FFF9
:1038080008BD00BFA001002008B50248FDF76EFF03
:1038180008BD00BF2C01002008B50248FDF766FF6F
:1038280008BD00BF6C00002008B50248FDF75EFF28
:1038380008BD00BF2802002008B50348FDF7EAFBD1
:103848000248FDF7E7FB08BD70010020F0000020EA
:1038580008B50248FEF75DFE08BD00BFE401002080
:1038680008B50248FEF755FE08BD00BFE401002078
:1038780008B50248FEF74DFE08BD00BFE401002070
:1038880008B50248FFF77AFA08BD00BFB00000206B
:1038980008B50248FEF73DFE08BD00BF2C00002019
:1038A80008B50248FEF735FE08BD00BF2C00002011
:1038B80008B50248FEF72DFE08BD00BF2C00002009
:1038C8000F4B1A6842F001021A6059680D4A0A4003
:1038D8005A601A6822F0847222F480321A601A68D8
:1038E80022F480221A605A6822F4FE025A604FF4C9
:1038F8001F029A60044B4FF000629A60704700BF45
:10390800001002400000FFF800ED00E0002103E095
:103918000B4B5B58435004310A480B4B42189A42F0
:10392800F6D30A4A02E0002342F8043B084B9A42C5
:10393800F9D3FFF7C5FF00F00FF8FFF706FD704752
:10394800043A0008000000200C0000200C000020B1
:1039580070020020FEE7000070B500250C4E0D4CEB
:10396800A41BA410A54209D100F022F800250A4E94
:103978000A4CA41BA410A54205D170BD56F82530E9
:1039880098470135EEE756F8253098470135F2E7B4
:10399800FC390008FC390008FC390008003A000826
:1039A80003460244934200D1704703F8011BF9E72C
:1039B800F8B500BFF8BC08BC9E467047F8B500BF14
:0839C800F8BC08BC9E467047E4
:1039D00002030405060708090A0B0C0D0E0F101050
:1039E00001020000000000000000000001020304CA
:0C39F000060708090000000001020304A3
:0439FC000D020008B0
:043A0000E9010008D0
:0C3A040001000000100000000024F4008D
:0400000508003915A1
:00000001FF
